{
  "contractName": "MainContract",
  "abi": [
    {
      "inputs": [
        {
          "internalType": "address",
          "name": "user",
          "type": "address"
        },
        {
          "internalType": "address[]",
          "name": "tokens",
          "type": "address[]"
        }
      ],
      "name": "getBalances",
      "outputs": [
        {
          "components": [
            {
              "internalType": "address",
              "name": "token",
              "type": "address"
            },
            {
              "internalType": "uint256",
              "name": "balance",
              "type": "uint256"
            }
          ],
          "internalType": "struct MainContract.Token[]",
          "name": "",
          "type": "tuple[]"
        }
      ],
      "stateMutability": "view",
      "type": "function",
      "constant": true
    },
    {
      "inputs": [
        {
          "internalType": "address",
          "name": "user",
          "type": "address"
        },
        {
          "internalType": "address",
          "name": "token",
          "type": "address"
        }
      ],
      "name": "getBalance",
      "outputs": [
        {
          "components": [
            {
              "internalType": "address",
              "name": "token",
              "type": "address"
            },
            {
              "internalType": "uint256",
              "name": "balance",
              "type": "uint256"
            }
          ],
          "internalType": "struct MainContract.Token",
          "name": "",
          "type": "tuple"
        }
      ],
      "stateMutability": "view",
      "type": "function",
      "constant": true
    }
  ],
  "bytecode": "0x608060405234801561001057600080fd5b5061077c806100206000396000f3fe608060405234801561001057600080fd5b50600436106100365760003560e01c80636a385ae91461003b578063d4fac45d1461006b575b600080fd5b610055600480360381019061005091906103c9565b61009b565b6040516100629190610562565b60405180910390f35b6100856004803603810190610080919061038d565b6101d4565b6040516100929190610584565b60405180910390f35b60606000825167ffffffffffffffff8111156100e0577f4e487b7100000000000000000000000000000000000000000000000000000000600052604160045260246000fd5b60405190808252806020026020018201604052801561011957816020015b61010661029d565b8152602001906001900390816100fe5790505b50905060005b83518110156101c95761017285858381518110610165577f4e487b7100000000000000000000000000000000000000000000000000000000600052603260045260246000fd5b60200260200101516101d4565b8282815181106101ab577f4e487b7100000000000000000000000000000000000000000000000000000000600052603260045260246000fd5b602002602001018190525080806101c190610671565b91505061011f565b508091505092915050565b6101dc61029d565b60008273ffffffffffffffffffffffffffffffffffffffff166370a08231856040518263ffffffff1660e01b81526004016102179190610547565b60206040518083038186803b15801561022f57600080fd5b505afa158015610243573d6000803e3d6000fd5b505050506040513d601f19601f82011682018060405250810190610267919061041d565b905060405180604001604052808473ffffffffffffffffffffffffffffffffffffffff1681526020018281525091505092915050565b6040518060400160405280600073ffffffffffffffffffffffffffffffffffffffff168152602001600081525090565b60006102e06102db846105d0565b61059f565b905080838252602082019050828560208602820111156102ff57600080fd5b60005b8581101561032f57816103158882610339565b845260208401935060208301925050600181019050610302565b5050509392505050565b60008135905061034881610718565b92915050565b600082601f83011261035f57600080fd5b813561036f8482602086016102cd565b91505092915050565b6000815190506103878161072f565b92915050565b600080604083850312156103a057600080fd5b60006103ae85828601610339565b92505060206103bf85828601610339565b9150509250929050565b600080604083850312156103dc57600080fd5b60006103ea85828601610339565b925050602083013567ffffffffffffffff81111561040757600080fd5b6104138582860161034e565b9150509250929050565b60006020828403121561042f57600080fd5b600061043d84828501610378565b91505092915050565b600061045283836104da565b60408301905092915050565b61046781610635565b82525050565b61047681610635565b82525050565b60006104878261060c565b6104918185610624565b935061049c836105fc565b8060005b838110156104cd5781516104b48882610446565b97506104bf83610617565b9250506001810190506104a0565b5085935050505092915050565b6040820160008201516104f0600085018261045e565b5060208201516105036020850182610538565b50505050565b60408201600082015161051f600085018261045e565b5060208201516105326020850182610538565b50505050565b61054181610667565b82525050565b600060208201905061055c600083018461046d565b92915050565b6000602082019050818103600083015261057c818461047c565b905092915050565b60006040820190506105996000830184610509565b92915050565b6000604051905081810181811067ffffffffffffffff821117156105c6576105c56106e9565b5b8060405250919050565b600067ffffffffffffffff8211156105eb576105ea6106e9565b5b602082029050602081019050919050565b6000819050602082019050919050565b600081519050919050565b6000602082019050919050565b600082825260208201905092915050565b600061064082610647565b9050919050565b600073ffffffffffffffffffffffffffffffffffffffff82169050919050565b6000819050919050565b600061067c82610667565b91507fffffffffffffffffffffffffffffffffffffffffffffffffffffffffffffffff8214156106af576106ae6106ba565b5b600182019050919050565b7f4e487b7100000000000000000000000000000000000000000000000000000000600052601160045260246000fd5b7f4e487b7100000000000000000000000000000000000000000000000000000000600052604160045260246000fd5b61072181610635565b811461072c57600080fd5b50565b61073881610667565b811461074357600080fd5b5056fea264697066735822122031bc7da5f5ad4326215cc05e98bc9ced1f6d9974910ed7aedf8df8a43cb1011664736f6c63430008000033",
  "immutableReferences": {},
  "source": "// SPDX-License-Identifier: MIT\r\npragma solidity >0.4.22 <= 0.9.0;\r\nimport \"@openzeppelin/contracts/token/ERC20/IERC20.sol\";\r\n\r\ncontract MainContract{\r\n\r\n  struct Token {\r\n    address token;\r\n    uint balance;\r\n  }\r\n  \r\n  function getBalances(address user, address[] memory tokens) view public returns(Token[] memory){\r\n      Token[] memory tokenBalances = new Token[](tokens.length);\r\n      for(uint i = 0 ; i < tokens.length ; i++){\r\n        tokenBalances[i] = getBalance(user, tokens[i]);\r\n      }\r\n\r\n      return tokenBalances;\r\n  }\r\n\r\n  function getBalance(address user, address token) view public returns(Token memory){\r\n    uint balance = IERC20(token).balanceOf(user);\r\n    return Token(token, balance);\r\n  }\r\n}\r\n",
  "sourcePath": "D:/BlockChain/Ethereum-201/SaladQuestions/src/problem4/contracts/MainContract.sol",
  "compiler": {
    "name": "solc",
    "version": "0.8.0+commit.c7dfd78e.Emscripten.clang"
  },
  "schemaVersion": "3.4.1",
  "updatedAt": "2022-02-23T22:38:18.277Z",
  "networkType": "ethereum",
  "devdoc": {
    "kind": "dev",
    "methods": {},
    "version": 1
  },
  "userdoc": {
    "kind": "user",
    "methods": {},
    "version": 1
  }
}